{
  "contractName": "Voting",
  "abi": [
    {
      "inputs": [
        {
          "internalType": "string[]",
          "name": "_candidates",
          "type": "string[]"
        }
      ],
      "stateMutability": "nonpayable",
      "type": "constructor"
    },
    {
      "anonymous": false,
      "inputs": [
        {
          "indexed": false,
          "internalType": "string",
          "name": "candidate",
          "type": "string"
        }
      ],
      "name": "NewCandidate",
      "type": "event"
    },
    {
      "anonymous": false,
      "inputs": [
        {
          "indexed": true,
          "internalType": "address",
          "name": "voter",
          "type": "address"
        },
        {
          "indexed": false,
          "internalType": "string",
          "name": "candidate",
          "type": "string"
        }
      ],
      "name": "VoteCast",
      "type": "event"
    },
    {
      "inputs": [
        {
          "internalType": "uint256",
          "name": "",
          "type": "uint256"
        }
      ],
      "name": "candidates",
      "outputs": [
        {
          "internalType": "string",
          "name": "",
          "type": "string"
        }
      ],
      "stateMutability": "view",
      "type": "function",
      "constant": true
    },
    {
      "inputs": [
        {
          "internalType": "address",
          "name": "",
          "type": "address"
        }
      ],
      "name": "hasVoted",
      "outputs": [
        {
          "internalType": "bool",
          "name": "",
          "type": "bool"
        }
      ],
      "stateMutability": "view",
      "type": "function",
      "constant": true
    },
    {
      "inputs": [],
      "name": "owner",
      "outputs": [
        {
          "internalType": "address",
          "name": "",
          "type": "address"
        }
      ],
      "stateMutability": "view",
      "type": "function",
      "constant": true
    },
    {
      "inputs": [
        {
          "internalType": "string",
          "name": "",
          "type": "string"
        }
      ],
      "name": "votes",
      "outputs": [
        {
          "internalType": "uint256",
          "name": "",
          "type": "uint256"
        }
      ],
      "stateMutability": "view",
      "type": "function",
      "constant": true
    },
    {
      "inputs": [
        {
          "internalType": "string",
          "name": "candidate",
          "type": "string"
        }
      ],
      "name": "vote",
      "outputs": [],
      "stateMutability": "nonpayable",
      "type": "function"
    },
    {
      "inputs": [
        {
          "internalType": "string",
          "name": "candidate",
          "type": "string"
        }
      ],
      "name": "getVotes",
      "outputs": [
        {
          "internalType": "uint256",
          "name": "",
          "type": "uint256"
        }
      ],
      "stateMutability": "view",
      "type": "function",
      "constant": true
    },
    {
      "inputs": [],
      "name": "getCandidates",
      "outputs": [
        {
          "internalType": "string[]",
          "name": "",
          "type": "string[]"
        }
      ],
      "stateMutability": "view",
      "type": "function",
      "constant": true
    },
    {
      "inputs": [
        {
          "internalType": "address",
          "name": "user",
          "type": "address"
        }
      ],
      "name": "hasUserVoted",
      "outputs": [
        {
          "internalType": "bool",
          "name": "",
          "type": "bool"
        }
      ],
      "stateMutability": "view",
      "type": "function",
      "constant": true
    }
  ],
  "bytecode": "0x60806040523480156200001157600080fd5b50604051620014453803806200144583398181016040528101906200003791906200034f565b336000806101000a81548173ffffffffffffffffffffffffffffffffffffffff021916908373ffffffffffffffffffffffffffffffffffffffff16021790555060005b815181101562000193576003828281518110620000c0577f4e487b7100000000000000000000000000000000000000000000000000000000600052603260045260246000fd5b6020026020010151908060018154018082558091505060019003906000526020600020016000909190919091509080519060200190620001029291906200019b565b507f896847989b21b81e24c9eee2d32332cbef5090379a811d37690d053bebac72928282815181106200015e577f4e487b7100000000000000000000000000000000000000000000000000000000600052603260045260246000fd5b6020026020010151604051620001759190620003d5565b60405180910390a180806200018a9062000521565b9150506200007a565b50506200060d565b828054620001a990620004eb565b90600052602060002090601f016020900481019282620001cd576000855562000219565b82601f10620001e857805160ff191683800117855562000219565b8280016001018555821562000219579182015b8281111562000218578251825591602001919060010190620001fb565b5b5090506200022891906200022c565b5090565b5b80821115620002475760008160009055506001016200022d565b5090565b6000620002626200025c846200042d565b620003f9565b9050808382526020820190508260005b85811015620002a657815185016200028b888262000322565b84526020840193506020830192505060018101905062000272565b5050509392505050565b6000620002c7620002c1846200045c565b620003f9565b905082815260208101848484011115620002e057600080fd5b620002ed848285620004b5565b509392505050565b600082601f8301126200030757600080fd5b8151620003198482602086016200024b565b91505092915050565b600082601f8301126200033457600080fd5b815162000346848260208601620002b0565b91505092915050565b6000602082840312156200036257600080fd5b600082015167ffffffffffffffff8111156200037d57600080fd5b6200038b84828501620002f5565b91505092915050565b6000620003a1826200048f565b620003ad81856200049a565b9350620003bf818560208601620004b5565b620003ca81620005fc565b840191505092915050565b60006020820190508181036000830152620003f1818462000394565b905092915050565b6000604051905081810181811067ffffffffffffffff82111715620004235762000422620005cd565b5b8060405250919050565b600067ffffffffffffffff8211156200044b576200044a620005cd565b5b602082029050602081019050919050565b600067ffffffffffffffff8211156200047a5762000479620005cd565b5b601f19601f8301169050602081019050919050565b600081519050919050565b600082825260208201905092915050565b6000819050919050565b60005b83811015620004d5578082015181840152602081019050620004b8565b83811115620004e5576000848401525b50505050565b600060028204905060018216806200050457607f821691505b602082108114156200051b576200051a6200059e565b5b50919050565b60006200052e82620004ab565b91507fffffffffffffffffffffffffffffffffffffffffffffffffffffffffffffffff8214156200056457620005636200056f565b5b600182019050919050565b7f4e487b7100000000000000000000000000000000000000000000000000000000600052601160045260246000fd5b7f4e487b7100000000000000000000000000000000000000000000000000000000600052602260045260246000fd5b7f4e487b7100000000000000000000000000000000000000000000000000000000600052604160045260246000fd5b6000601f19601f8301169050919050565b610e28806200061d6000396000f3fe608060405234801561001057600080fd5b50600436106100885760003560e01c8063805265e51161005b578063805265e51461013b5780638da5cb5b1461016b578063b99ef1fa14610189578063fc36e15b146101b957610088565b806306a49fce1461008d57806309eef43e146100ab5780633477ee2e146100db5780637fabe80a1461010b575b600080fd5b6100956101d5565b6040516100a29190610a80565b60405180910390f35b6100c560048036038101906100c0919061074c565b6102ae565b6040516100d29190610aa2565b60405180910390f35b6100f560048036038101906100f091906107b6565b6102ce565b6040516101029190610abd565b60405180910390f35b6101256004803603810190610120919061074c565b61037a565b6040516101329190610aa2565b60405180910390f35b61015560048036038101906101509190610775565b6103d0565b6040516101629190610b1f565b60405180910390f35b6101736103f8565b6040516101809190610a65565b60405180910390f35b6101a3600480360381019061019e9190610775565b61041c565b6040516101b09190610b1f565b60405180910390f35b6101d360048036038101906101ce9190610775565b61044a565b005b60606003805480602002602001604051908101604052809291908181526020016000905b828210156102a557838290600052602060002001805461021890610cab565b80601f016020809104026020016040519081016040528092919081815260200182805461024490610cab565b80156102915780601f1061026657610100808354040283529160200191610291565b820191906000526020600020905b81548152906001019060200180831161027457829003601f168201915b5050505050815260200190600101906101f9565b50505050905090565b60026020528060005260406000206000915054906101000a900460ff1681565b600381815481106102de57600080fd5b9060005260206000200160009150905080546102f990610cab565b80601f016020809104026020016040519081016040528092919081815260200182805461032590610cab565b80156103725780601f1061034757610100808354040283529160200191610372565b820191906000526020600020905b81548152906001019060200180831161035557829003601f168201915b505050505081565b6000600260008373ffffffffffffffffffffffffffffffffffffffff1673ffffffffffffffffffffffffffffffffffffffff16815260200190815260200160002060009054906101000a900460ff169050919050565b60006001826040516103e29190610a37565b9081526020016040518091039020549050919050565b60008054906101000a900473ffffffffffffffffffffffffffffffffffffffff1681565b6001818051602081018201805184825260208301602085012081835280955050505050506000915090505481565b600260003373ffffffffffffffffffffffffffffffffffffffff1673ffffffffffffffffffffffffffffffffffffffff16815260200190815260200160002060009054906101000a900460ff16156104d7576040517f08c379a00000000000000000000000000000000000000000000000000000000081526004016104ce90610aff565b60405180910390fd5b6000805b60038054905081101561059b57826040516020016104f99190610a37565b6040516020818303038152906040528051906020012060038281548110610549577f4e487b7100000000000000000000000000000000000000000000000000000000600052603260045260246000fd5b906000526020600020016040516020016105639190610a4e565b604051602081830303815290604052805190602001201415610588576001915061059b565b808061059390610cdd565b9150506104db565b50806105dc576040517f08c379a00000000000000000000000000000000000000000000000000000000081526004016105d390610adf565b60405180910390fd5b6001826040516105ec9190610a37565b9081526020016040518091039020600081548092919061060b90610cdd565b91905055506001600260003373ffffffffffffffffffffffffffffffffffffffff1673ffffffffffffffffffffffffffffffffffffffff16815260200190815260200160002060006101000a81548160ff0219169083151502179055503373ffffffffffffffffffffffffffffffffffffffff167f866dc605853954ffa419910eb05d67f430efec2e7db7ce135bf55565667a4ab4836040516106ae9190610abd565b60405180910390a25050565b60006106cd6106c884610b6b565b610b3a565b9050828152602081018484840111156106e557600080fd5b6106f0848285610c69565b509392505050565b60008135905061070781610dc4565b92915050565b600082601f83011261071e57600080fd5b813561072e8482602086016106ba565b91505092915050565b60008135905061074681610ddb565b92915050565b60006020828403121561075e57600080fd5b600061076c848285016106f8565b91505092915050565b60006020828403121561078757600080fd5b600082013567ffffffffffffffff8111156107a157600080fd5b6107ad8482850161070d565b91505092915050565b6000602082840312156107c857600080fd5b60006107d684828501610737565b91505092915050565b60006107eb8383610886565b905092915050565b6107fc81610c21565b82525050565b600061080d82610bc0565b6108178185610be3565b93508360208202850161082985610b9b565b8060005b85811015610865578484038952815161084685826107df565b945061085183610bd6565b925060208a0199505060018101905061082d565b50829750879550505050505092915050565b61088081610c33565b82525050565b600061089182610bcb565b61089b8185610bf4565b93506108ab818560208601610c78565b6108b481610db3565b840191505092915050565b60006108ca82610bcb565b6108d48185610c05565b93506108e4818560208601610c78565b6108ed81610db3565b840191505092915050565b600061090382610bcb565b61090d8185610c16565b935061091d818560208601610c78565b80840191505092915050565b6000815461093681610cab565b6109408186610c16565b9450600182166000811461095b576001811461096c5761099f565b60ff1983168652818601935061099f565b61097585610bab565b60005b8381101561099757815481890152600182019150602081019050610978565b838801955050505b50505092915050565b60006109b5601183610c05565b91507f496e76616c69642063616e6469646174650000000000000000000000000000006000830152602082019050919050565b60006109f5601683610c05565b91507f596f75206861766520616c726561647920766f746564000000000000000000006000830152602082019050919050565b610a3181610c5f565b82525050565b6000610a4382846108f8565b915081905092915050565b6000610a5a8284610929565b915081905092915050565b6000602082019050610a7a60008301846107f3565b92915050565b60006020820190508181036000830152610a9a8184610802565b905092915050565b6000602082019050610ab76000830184610877565b92915050565b60006020820190508181036000830152610ad781846108bf565b905092915050565b60006020820190508181036000830152610af8816109a8565b9050919050565b60006020820190508181036000830152610b18816109e8565b9050919050565b6000602082019050610b346000830184610a28565b92915050565b6000604051905081810181811067ffffffffffffffff82111715610b6157610b60610d84565b5b8060405250919050565b600067ffffffffffffffff821115610b8657610b85610d84565b5b601f19601f8301169050602081019050919050565b6000819050602082019050919050565b60008190508160005260206000209050919050565b600081519050919050565b600081519050919050565b6000602082019050919050565b600082825260208201905092915050565b600082825260208201905092915050565b600082825260208201905092915050565b600081905092915050565b6000610c2c82610c3f565b9050919050565b60008115159050919050565b600073ffffffffffffffffffffffffffffffffffffffff82169050919050565b6000819050919050565b82818337600083830152505050565b60005b83811015610c96578082015181840152602081019050610c7b565b83811115610ca5576000848401525b50505050565b60006002820490506001821680610cc357607f821691505b60208210811415610cd757610cd6610d55565b5b50919050565b6000610ce882610c5f565b91507fffffffffffffffffffffffffffffffffffffffffffffffffffffffffffffffff821415610d1b57610d1a610d26565b5b600182019050919050565b7f4e487b7100000000000000000000000000000000000000000000000000000000600052601160045260246000fd5b7f4e487b7100000000000000000000000000000000000000000000000000000000600052602260045260246000fd5b7f4e487b7100000000000000000000000000000000000000000000000000000000600052604160045260246000fd5b6000601f19601f8301169050919050565b610dcd81610c21565b8114610dd857600080fd5b50565b610de481610c5f565b8114610def57600080fd5b5056fea2646970667358221220d7d8f07647cf61281a7304f463baee309d6f8cc94abbed9132a02eb41a2528c264736f6c63430008000033",
  "immutableReferences": {},
  "source": "// SPDX-License-Identifier: MIT\r\npragma solidity ^0.8.0;\r\n\r\ncontract Voting {\r\n    address public owner;\r\n    mapping(string => uint256) public votes;\r\n    mapping(address => bool) public hasVoted;\r\n\r\n    string[] public candidates;\r\n    event VoteCast(address indexed voter, string candidate);\r\n    event NewCandidate(string candidate);\r\n\r\n    constructor(string[] memory _candidates) {\r\n        owner = msg.sender;\r\n        for(uint i = 0; i < _candidates.length; i++) {\r\n            candidates.push(_candidates[i]);\r\n            emit NewCandidate(_candidates[i]);\r\n        }\r\n    }\r\n\r\n    function vote(string memory candidate) public {\r\n        require(!hasVoted[msg.sender], \"You have already voted\");\r\n        bool validCandidate = false;\r\n        for (uint i = 0; i < candidates.length; i++) {\r\n            if (keccak256(abi.encodePacked(candidates[i])) == keccak256(abi.encodePacked(candidate))) {\r\n                validCandidate = true;\r\n                break;\r\n            }\r\n        }\r\n        require(validCandidate, \"Invalid candidate\");\r\n        votes[candidate]++;\r\n        hasVoted[msg.sender] = true;\r\n        emit VoteCast(msg.sender, candidate);\r\n    }\r\n\r\n    function getVotes(string memory candidate) public view returns (uint256) {\r\n        return votes[candidate];\r\n    }\r\n\r\n    function getCandidates() public view returns (string[] memory) {\r\n        return candidates;\r\n    }\r\n\r\n    function hasUserVoted(address user) public view returns (bool) {\r\n        return hasVoted[user];\r\n    }\r\n}\r\n",
  "sourcePath": "D:\\Belajar Blockchain\\web3-voting\\contracts\\Voting.sol",
  "compiler": {
    "name": "solc",
    "version": "0.8.0+commit.c7dfd78e.Emscripten.clang"
  },
  "schemaVersion": "3.4.16",
  "updatedAt": "2024-11-06T16:09:56.508Z",
  "networkType": "ethereum",
  "devdoc": {
    "kind": "dev",
    "methods": {},
    "version": 1
  },
  "userdoc": {
    "kind": "user",
    "methods": {},
    "version": 1
  }
}